{
  "contractName": "GaslessCounter",
  "abi": [
    {
      "constant": true,
      "inputs": [],
      "name": "get_hub_addr",
      "outputs": [
        {
          "name": "",
          "type": "address"
        }
      ],
      "payable": false,
      "stateMutability": "view",
      "type": "function"
    },
    {
      "constant": true,
      "inputs": [
        {
          "name": "",
          "type": "address"
        }
      ],
      "name": "whiteList",
      "outputs": [
        {
          "name": "",
          "type": "bool"
        }
      ],
      "payable": false,
      "stateMutability": "view",
      "type": "function"
    },
    {
      "constant": true,
      "inputs": [],
      "name": "get_message_data",
      "outputs": [
        {
          "name": "",
          "type": "bytes"
        }
      ],
      "payable": false,
      "stateMutability": "view",
      "type": "function"
    },
    {
      "constant": true,
      "inputs": [],
      "name": "get_sender",
      "outputs": [
        {
          "name": "",
          "type": "address"
        }
      ],
      "payable": false,
      "stateMutability": "view",
      "type": "function"
    },
    {
      "constant": true,
      "inputs": [
        {
          "name": "orig_sender",
          "type": "address"
        },
        {
          "name": "msg_data",
          "type": "bytes"
        }
      ],
      "name": "get_sender_from_data",
      "outputs": [
        {
          "name": "",
          "type": "address"
        }
      ],
      "payable": false,
      "stateMutability": "view",
      "type": "function"
    },
    {
      "constant": true,
      "inputs": [],
      "name": "get_recipient_balance",
      "outputs": [
        {
          "name": "",
          "type": "uint256"
        }
      ],
      "payable": false,
      "stateMutability": "view",
      "type": "function"
    },
    {
      "constant": false,
      "inputs": [],
      "name": "initialize",
      "outputs": [],
      "payable": false,
      "stateMutability": "nonpayable",
      "type": "function"
    },
    {
      "constant": true,
      "inputs": [],
      "name": "owner",
      "outputs": [
        {
          "name": "",
          "type": "address"
        }
      ],
      "payable": false,
      "stateMutability": "view",
      "type": "function"
    },
    {
      "constant": true,
      "inputs": [],
      "name": "getCounter",
      "outputs": [
        {
          "name": "",
          "type": "uint256"
        }
      ],
      "payable": false,
      "stateMutability": "view",
      "type": "function"
    },
    {
      "constant": false,
      "inputs": [
        {
          "name": "amount",
          "type": "uint256"
        }
      ],
      "name": "increaseCounter",
      "outputs": [],
      "payable": false,
      "stateMutability": "nonpayable",
      "type": "function"
    },
    {
      "constant": false,
      "inputs": [
        {
          "name": "amount",
          "type": "uint256"
        }
      ],
      "name": "decreaseCounter",
      "outputs": [],
      "payable": false,
      "stateMutability": "nonpayable",
      "type": "function"
    },
    {
      "constant": false,
      "inputs": [
        {
          "name": "grantedAddress",
          "type": "address"
        }
      ],
      "name": "addToWhiteList",
      "outputs": [],
      "payable": false,
      "stateMutability": "nonpayable",
      "type": "function"
    },
    {
      "constant": true,
      "inputs": [
        {
          "name": "",
          "type": "address"
        },
        {
          "name": "from",
          "type": "address"
        },
        {
          "name": "",
          "type": "bytes"
        },
        {
          "name": "",
          "type": "uint256"
        },
        {
          "name": "",
          "type": "uint256"
        }
      ],
      "name": "accept_relayed_call",
      "outputs": [
        {
          "name": "",
          "type": "uint32"
        }
      ],
      "payable": false,
      "stateMutability": "view",
      "type": "function"
    },
    {
      "constant": false,
      "inputs": [
        {
          "name": "",
          "type": "address"
        },
        {
          "name": "",
          "type": "address"
        },
        {
          "name": "",
          "type": "bytes"
        },
        {
          "name": "",
          "type": "bool"
        },
        {
          "name": "",
          "type": "uint256"
        },
        {
          "name": "",
          "type": "uint256"
        }
      ],
      "name": "post_relayed_call",
      "outputs": [],
      "payable": false,
      "stateMutability": "nonpayable",
      "type": "function"
    },
    {
      "constant": false,
      "inputs": [
        {
          "name": "hub_addr",
          "type": "address"
        }
      ],
      "name": "init_hub",
      "outputs": [],
      "payable": false,
      "stateMutability": "nonpayable",
      "type": "function"
    }
  ],
  "bytecode": "0x608060405234801561001057600080fd5b5061110f806100206000396000f3fe6080604052600436106100db576000357c0100000000000000000000000000000000000000000000000000000000900463ffffffff16806304badade146100e0578063372c12b11461013757806347ee0394146101a0578063516dea30146101f15780635dea186c146103195780638129fc1c146104555780638ada066e1461046c5780638da5cb5b1461049757806391719568146104ee5780639e80c0741461057e578063a8d509ff146105b9578063b24f03af14610610578063c304e7a41461064b578063cb03909614610773578063ed6cd5d3146107c4575b600080fd5b3480156100ec57600080fd5b506100f56107ef565b604051808273ffffffffffffffffffffffffffffffffffffffff1673ffffffffffffffffffffffffffffffffffffffff16815260200191505060405180910390f35b34801561014357600080fd5b506101866004803603602081101561015a57600080fd5b81019080803573ffffffffffffffffffffffffffffffffffffffff169060200190929190505050610819565b604051808215151515815260200191505060405180910390f35b3480156101ac57600080fd5b506101ef600480360360208110156101c357600080fd5b81019080803573ffffffffffffffffffffffffffffffffffffffff169060200190929190505050610839565b005b3480156101fd57600080fd5b50610317600480360360c081101561021457600080fd5b81019080803573ffffffffffffffffffffffffffffffffffffffff169060200190929190803573ffffffffffffffffffffffffffffffffffffffff1690602001909291908035906020019064010000000081111561027157600080fd5b82018360208201111561028357600080fd5b803590602001918460018302840111640100000000831117156102a557600080fd5b91908080601f016020809104026020016040519081016040528093929190818152602001838380828437600081840152601f19601f8201169050808301925050505050505091929192908035151590602001909291908035906020019092919080359060200190929190505050610894565b005b34801561032557600080fd5b50610433600480360360a081101561033c57600080fd5b81019080803573ffffffffffffffffffffffffffffffffffffffff169060200190929190803573ffffffffffffffffffffffffffffffffffffffff1690602001909291908035906020019064010000000081111561039957600080fd5b8201836020820111156103ab57600080fd5b803590602001918460018302840111640100000000831117156103cd57600080fd5b91908080601f016020809104026020016040519081016040528093929190818152602001838380828437600081840152601f19601f820116905080830192505050505050509192919290803590602001909291908035906020019092919050505061089c565b604051808263ffffffff1663ffffffff16815260200191505060405180910390f35b34801561046157600080fd5b5061046a610904565b005b34801561047857600080fd5b50610481610a82565b6040518082815260200191505060405180910390f35b3480156104a357600080fd5b506104ac610a8c565b604051808273ffffffffffffffffffffffffffffffffffffffff1673ffffffffffffffffffffffffffffffffffffffff16815260200191505060405180910390f35b3480156104fa57600080fd5b50610503610ab6565b6040518080602001828103825283818151815260200191508051906020019080838360005b83811015610543578082015181840152602081019050610528565b50505050905090810190601f1680156105705780820380516001836020036101000a031916815260200191505b509250505060405180910390f35b34801561058a57600080fd5b506105b7600480360360208110156105a157600080fd5b8101908080359060200190929190505050610c56565b005b3480156105c557600080fd5b506105ce610c64565b604051808273ffffffffffffffffffffffffffffffffffffffff1673ffffffffffffffffffffffffffffffffffffffff16815260200191505060405180910390f35b34801561061c57600080fd5b506106496004803603602081101561063357600080fd5b8101908080359060200190929190505050610cba565b005b34801561065757600080fd5b506107316004803603604081101561066e57600080fd5b81019080803573ffffffffffffffffffffffffffffffffffffffff169060200190929190803590602001906401000000008111156106ab57600080fd5b8201836020820111156106bd57600080fd5b803590602001918460018302840111640100000000831117156106df57600080fd5b91908080601f016020809104026020016040519081016040528093929190818152602001838380828437600081840152601f19601f820116905080830192505050505050509192919290505050610d42565b604051808273ffffffffffffffffffffffffffffffffffffffff1673ffffffffffffffffffffffffffffffffffffffff16815260200191505060405180910390f35b34801561077f57600080fd5b506107c26004803603602081101561079657600080fd5b81019080803573ffffffffffffffffffffffffffffffffffffffff169060200190929190505050610e8d565b005b3480156107d057600080fd5b506107d9610e99565b6040518082815260200191505060405180910390f35b6000603360009054906101000a900473ffffffffffffffffffffffffffffffffffffffff16905090565b60366020528060005260406000206000915054906101000a900460ff1681565b6001603660008373ffffffffffffffffffffffffffffffffffffffff1673ffffffffffffffffffffffffffffffffffffffff16815260200190815260200160002060006101000a81548160ff02191690831515021790555050565b505050505050565b6000603660008673ffffffffffffffffffffffffffffffffffffffff1673ffffffffffffffffffffffffffffffffffffffff16815260200190815260200160002060009054906101000a900460ff161515156108f757600080fd5b6000905095945050505050565b600060019054906101000a900460ff16806109235750610922610f7b565b5b8061093a57506000809054906101000a900460ff16155b15156109d4576040517f08c379a000000000000000000000000000000000000000000000000000000000815260040180806020018281038252602e8152602001807f436f6e747261637420696e7374616e63652068617320616c726561647920626581526020017f656e20696e697469616c697a656400000000000000000000000000000000000081525060400191505060405180910390fd5b60008060019054906101000a900460ff1690506001600060016101000a81548160ff02191690831515021790555060016000806101000a81548160ff02191690831515021790555033603560006101000a81548173ffffffffffffffffffffffffffffffffffffffff021916908373ffffffffffffffffffffffffffffffffffffffff160217905550600060348190555080600060016101000a81548160ff02191690831515021790555050565b6000603454905090565b6000603560009054906101000a900473ffffffffffffffffffffffffffffffffffffffff16905090565b6060806000368080601f016020809104026020016040519081016040528093929190818152602001838380828437600081840152601f19601f820116905080830192505050505050509050610b096107ef565b73ffffffffffffffffffffffffffffffffffffffff163373ffffffffffffffffffffffffffffffffffffffff161415610c4f5760146000369050036040519080825280601f01601f191660200182016040528015610b765781602001600182028038833980820191505090505b50905060008090505b8151811015610c4d57600036828181101515610b9757fe5b905001357f010000000000000000000000000000000000000000000000000000000000000090047f0100000000000000000000000000000000000000000000000000000000000000027effffffffffffffffffffffffffffffffffffffffffffffffffffffffffffff19168282815181101515610c1057fe5b9060200101907effffffffffffffffffffffffffffffffffffffffffffffffffffffffffffff1916908160001a9053508080600101915050610b7f565b505b8091505090565b806034540160348190555050565b6000610cb5336000368080601f016020809104026020016040519081016040528093929190818152602001838380828437600081840152601f19601f82011690508083019250505050505050610d42565b905090565b8060345410151515610d34576040517f08c379a00000000000000000000000000000000000000000000000000000000081526004018080602001828103825260168152602001807f43616e6e6f74206265206c6f776572207468616e20300000000000000000000081525060200191505060405180910390fd5b806034540360348190555050565b600080839050610d506107ef565b73ffffffffffffffffffffffffffffffffffffffff168473ffffffffffffffffffffffffffffffffffffffff161415610e8357606060146040519080825280601f01601f191660200182016040528015610db95781602001600182028038833980820191505090505b50905060008090505b8151811015610e75578481835187510301815181101515610ddf57fe5b9060200101517f010000000000000000000000000000000000000000000000000000000000000090047f0100000000000000000000000000000000000000000000000000000000000000028282815181101515610e3857fe5b9060200101907effffffffffffffffffffffffffffffffffffffffffffffffffffffffffffff1916908160001a9053508080600101915050610dc2565b50610e7f81610f8c565b9150505b8091505092915050565b610e9681610f9a565b50565b6000610ea361106c565b73ffffffffffffffffffffffffffffffffffffffff166370a08231306040518263ffffffff167c0100000000000000000000000000000000000000000000000000000000028152600401808273ffffffffffffffffffffffffffffffffffffffff1673ffffffffffffffffffffffffffffffffffffffff16815260200191505060206040518083038186803b158015610f3b57600080fd5b505afa158015610f4f573d6000803e3d6000fd5b505050506040513d6020811015610f6557600080fd5b8101908080519060200190929190505050905090565b600080303b90506000811491505090565b600060148201519050919050565b600073ffffffffffffffffffffffffffffffffffffffff16603360009054906101000a900473ffffffffffffffffffffffffffffffffffffffff1673ffffffffffffffffffffffffffffffffffffffff16141515611060576040517f08c379a00000000000000000000000000000000000000000000000000000000081526004018080602001828103825260208152602001807f696e69745f72656c61795f6875623a207268756220616c72656164792073657481525060200191505060405180910390fd5b61106981611096565b50565b6000603360009054906101000a900473ffffffffffffffffffffffffffffffffffffffff16905090565b80603360006101000a81548173ffffffffffffffffffffffffffffffffffffffff021916908373ffffffffffffffffffffffffffffffffffffffff1602179055506110df610e99565b505056fea165627a7a72305820b481c4ccfff5f03b0df870dc331a66899e63a55dd36c80f87175bd26f9d821e80029",
  "source": "pragma solidity ^0.5.0;\n\nimport \"zos-lib/contracts/Initializable.sol\";\nimport \"tabookey-gasless/contracts/RelayRecipient.sol\";\n\n\ncontract GaslessCounter is Initializable, RelayRecipient {\n  //it keeps a count to demonstrate stage changes\n  uint private count;\n  address private _owner;\n  mapping (address => bool) public whiteList;\n\n  function initialize() initializer public {\n    _owner = msg.sender;\n    count = 0;\n  }\n\n  function owner() public view returns (address) {\n    return _owner;\n  }\n\n  // getter\n  function getCounter() public view returns (uint) {\n    return count;\n  }\n\n  //and it can add to a count\n  function increaseCounter(uint256 amount) public {\n    count = count + amount;\n  }\n\n  function decreaseCounter(uint256 amount) public {\n    require(count >= amount, \"Cannot be lower than 0\");\n    count = count - amount;\n  }\n\n  function addToWhiteList(address grantedAddress) public {\n    whiteList[grantedAddress] = true;\n  }\n\n  function accept_relayed_call(address /*relay*/, address from,\n    bytes memory /*encoded_function*/, uint /*gas_price*/, \n    uint /*transaction_fee*/ ) public view returns(uint32) {\n      // We'll invert this to control access to the relayer.\n      require(!whiteList[from]);\n      return 0;\n  }\n\n  function post_relayed_call(address /*relay*/, address /*from*/,\n    bytes memory /*encoded_function*/, bool /*success*/,\n    uint /*used_gas*/, uint /*transaction_fee*/ ) public {\n  }\n\n  function init_hub(RelayHub hub_addr) public {\n    init_relay_hub(hub_addr);\n  }\n}\n",
  "sourcePath": "/Users/dennisonzeppelin/Documents/kylesGassless/zepkit/contracts/GaslessCounter.sol",
  "compiler": {
    "name": "solc",
    "version": "0.5.0+commit.1d4f565a.Emscripten.clang"
  },
  "schemaVersion": "3.0.2",
  "updatedAt": "2019-04-25T17:28:36.238Z",
  "devdoc": {
    "methods": {}
  },
  "userdoc": {
    "methods": {
      "get_recipient_balance()": {
        "notice": "return the balance of this contract. Note that this method will revert on configuration error (invalid relay address)"
      }
    }
  }
}