{
  "contractName": "RLPReader",
  "abi": [
    {
      "constant": true,
      "inputs": [
        {
          "name": "raw_transaction",
          "type": "bytes"
        }
      ],
      "name": "decode_transaction",
      "outputs": [
        {
          "name": "",
          "type": "uint256"
        },
        {
          "name": "",
          "type": "uint256"
        },
        {
          "name": "",
          "type": "uint256"
        },
        {
          "name": "",
          "type": "address"
        },
        {
          "name": "",
          "type": "uint256"
        },
        {
          "name": "",
          "type": "bytes"
        }
      ],
      "payable": false,
      "stateMutability": "pure",
      "type": "function"
    }
  ],
  "bytecode": "0x610874610030600b82828239805160001a6073146000811461002057610022565bfe5b5030600052607381538281f3fe7300000000000000000000000000000000000000003014608060405260043610610058576000357c0100000000000000000000000000000000000000000000000000000000900463ffffffff168063781cebc11461005d575b600080fd5b6101166004803603602081101561007357600080fd5b810190808035906020019064010000000081111561009057600080fd5b8201836020820111156100a257600080fd5b803590602001918460018302840111640100000000831117156100c457600080fd5b91908080601f016020809104026020016040519081016040528093929190818152602001838380828437600081840152601f19601f8201169050808301925050505050505091929192905050506101e0565b604051808781526020018681526020018581526020018473ffffffffffffffffffffffffffffffffffffffff1673ffffffffffffffffffffffffffffffffffffffff16815260200183815260200180602001828103825283818151815260200191508051906020019080838360005b838110156101a0578082015181840152602081019050610185565b50505050905090810190601f1680156101cd5780820380516001836020036101000a031916815260200191505b5097505050505050505060405180910390f35b60008060008060006060806101fc6101f7896102da565b610331565b905061021f81600081518110151561021057fe5b90602001906020020151610477565b61024082600181518110151561023157fe5b90602001906020020151610477565b61026183600281518110151561025257fe5b90602001906020020151610477565b61028284600381518110151561027357fe5b906020019060200201516104ba565b6102a385600481518110151561029457fe5b90602001906020020151610477565b6102c48660058151811015156102b557fe5b9060200190602002015161056f565b9650965096509650965096505091939550919395565b6102e2610814565b60008251141561030a576040805190810160405280600081526020016000815250905061032c565b6000602083019050604080519081016040528084518152602001828152509150505b919050565b606061033c826105ea565b15156103b0576040517f08c379a000000000000000000000000000000000000000000000000000000000815260040180806020018281038252600d8152602001807f69734c697374206661696c65640000000000000000000000000000000000000081525060200191505060405180910390fd5b60006103bb83610623565b9050806040519080825280602002602001820160405280156103f757816020015b6103e461082e565b8152602001906001900390816103dc5790505b5091506000610409846020015161067e565b8460200151019050600080600090505b8381101561046e5761042a83610707565b9150604080519081016040528083815260200184815250858281518110151561044f57fe5b9060200190602002018190525081830192508080600101915050610419565b50505050919050565b600080610487836020015161067e565b9050600081846000015103905060008285602001510190506000826020036101000a825104905080945050505050919050565b6000601582600001511115151561055f576040517f08c379a000000000000000000000000000000000000000000000000000000000815260040180806020018281038252603a8152602001807f496e76616c696420524c504974656d2e2041646472657373657320617265206581526020017f6e636f64656420696e203230206279746573206f72206c65737300000000000081525060400191505060405180910390fd5b61056882610477565b9050919050565b60606000610580836020015161067e565b905060008184600001510390506060816040519080825280601f01601f1916602001820160405280156105c25781602001600182028038833980820191505090505b50905060008160200190506105de8487602001510182856107ba565b81945050505050919050565b600080600083602001519050805160001a915060c060ff168260ff1610156106175760009250505061061e565b6001925050505b919050565b600080600090506000610639846020015161067e565b84602001510190506000846000015185602001510190505b808210156106735761066282610707565b820191508280600101935050610651565b829350505050919050565b600080825160001a9050608060ff1681101561069e576000915050610702565b60b860ff168110806106c3575060c060ff1681101580156106c2575060f860ff1681105b5b156106d2576001915050610702565b60c060ff168110156106f25760018060b80360ff16820301915050610702565b60018060f80360ff168203019150505b919050565b600080825160001a9050608060ff168110156107275760019150506107b5565b60b860ff16811015610745576001608060ff168203019150506107b5565b60c060ff168110156107755760b78103600184019350806020036101000a845104600182018101935050506107b3565b60f860ff1681101561079357600160c060ff168203019150506107b5565b60f78103600184019350806020036101000a845104600182018101935050505b505b919050565b5b602060ff16811015156107ec5782518252602060ff1683019250602060ff1682019150602060ff16810390506107bb565b6000600182602060ff16036101000a0390508019845116818451168181178552505050505050565b604080519081016040528060008152602001600081525090565b60408051908101604052806000815260200160008152509056fea165627a7a723058208a1551e3d6c1465970b27846fd0b9f47a2e9bb8a361b4c09458d835cfe1b4c060029",
  "source": "/*\n* Taken from https://github.com/hamdiallam/Solidity-RLP\n*/\n\npragma solidity >=0.4.0 <0.6.0;\n\nlibrary RLPReader {\n\n    uint8 constant STRING_SHORT_START = 0x80;\n    uint8 constant STRING_LONG_START = 0xb8;\n    uint8 constant LIST_SHORT_START = 0xc0;\n    uint8 constant LIST_LONG_START = 0xf8;\n    uint8 constant WORD_SIZE = 32;\n\n    struct RLPItem {\n        uint len;\n        uint memPtr;\n    }\n\n    using RLPReader for bytes;\n    using RLPReader for uint;\n    using RLPReader for RLPReader.RLPItem;\n\n    // helper function to decode rlp encoded  ethereum transaction\n    /*\n    * @param raw_transaction RLP encoded ethereum transaction\n    * @return tuple (nonce,gas_price,gas_limit,to,value,data)\n    */\n\n    function decode_transaction(bytes memory raw_transaction) public pure returns (uint, uint, uint, address, uint, bytes memory){\n        RLPReader.RLPItem[] memory values = raw_transaction.toRlpItem().toList(); // must convert to an rlpItem first!\n        return (values[0].toUint(), values[1].toUint(), values[2].toUint(), values[3].toAddress(), values[4].toUint(), values[5].toBytes());\n    }\n\n    function bytesToBytes32(bytes memory b, uint offset) private pure returns (bytes32) {\n        bytes32 out;\n        for (uint i = 0; i < 32; i++) {\n            out |= bytes32(b[offset + i] & 0xFF) >> (i * 8);\n        }\n        return out;\n    }\n\n    /*\n    * @param item RLP encoded bytes\n    */\n    function toRlpItem(bytes memory item) internal pure returns (RLPItem memory) {\n        if (item.length == 0)\n            return RLPItem(0, 0);\n        uint memPtr;\n        assembly {\n            memPtr := add(item, 0x20)\n        }\n        return RLPItem(item.length, memPtr);\n    }\n    /*\n    * @param item RLP encoded list in bytes\n    */\n    function toList(RLPItem memory item) internal pure returns (RLPItem[] memory result) {\n        require(isList(item), \"isList failed\");\n        uint items = numItems(item);\n        result = new RLPItem[](items);\n        uint memPtr = item.memPtr + _payloadOffset(item.memPtr);\n        uint dataLen;\n        for (uint i = 0; i < items; i++) {\n            dataLen = _itemLength(memPtr);\n            result[i] = RLPItem(dataLen, memPtr);\n            memPtr = memPtr + dataLen;\n        }\n    }\n    /*\n    * Helpers\n    */\n    // @return indicator whether encoded payload is a list. negate this function call for isData.\n    function isList(RLPItem memory item) internal pure returns (bool) {\n        uint8 byte0;\n        uint memPtr = item.memPtr;\n        assembly {\n            byte0 := byte(0, mload(memPtr))\n        }\n        if (byte0 < LIST_SHORT_START)\n            return false;\n        return true;\n    }\n    // @return number of payload items inside an encoded list.\n    function numItems(RLPItem memory item) internal pure returns (uint) {\n        uint count = 0;\n        uint currPtr = item.memPtr + _payloadOffset(item.memPtr);\n        uint endPtr = item.memPtr + item.len;\n        while (currPtr < endPtr) {\n            currPtr = currPtr + _itemLength(currPtr);\n            // skip over an item\n            count++;\n        }\n        return count;\n    }\n    // @return entire rlp item byte length\n    function _itemLength(uint memPtr) internal pure returns (uint len) {\n        uint byte0;\n        assembly {\n            byte0 := byte(0, mload(memPtr))\n        }\n        if (byte0 < STRING_SHORT_START)\n            return 1;\n        else if (byte0 < STRING_LONG_START)\n            return byte0 - STRING_SHORT_START + 1;\n        else if (byte0 < LIST_SHORT_START) {\n            assembly {\n                let byteLen := sub(byte0, 0xb7) // # of bytes the actual length is\n                memPtr := add(memPtr, 1) // skip over the first byte\n            /* 32 byte word size */\n                let dataLen := div(mload(memPtr), exp(256, sub(32, byteLen))) // right shifting to get the len\n                len := add(dataLen, add(byteLen, 1))\n            }\n        }\n        else if (byte0 < LIST_LONG_START) {\n            return byte0 - LIST_SHORT_START + 1;\n        }\n        else {\n            assembly {\n                let byteLen := sub(byte0, 0xf7)\n                memPtr := add(memPtr, 1)\n                let dataLen := div(mload(memPtr), exp(256, sub(32, byteLen))) // right shifting to the correct length\n                len := add(dataLen, add(byteLen, 1))\n            }\n        }\n    }\n    // @return number of bytes until the data\n    function _payloadOffset(uint memPtr) internal pure returns (uint) {\n        uint byte0;\n        assembly {\n            byte0 := byte(0, mload(memPtr))\n        }\n        if (byte0 < STRING_SHORT_START)\n            return 0;\n        else if (byte0 < STRING_LONG_START || (byte0 >= LIST_SHORT_START && byte0 < LIST_LONG_START))\n            return 1;\n        else if (byte0 < LIST_SHORT_START)  // being explicit\n            return byte0 - (STRING_LONG_START - 1) + 1;\n        else\n            return byte0 - (LIST_LONG_START - 1) + 1;\n    }\n    /** RLPItem conversions into data types **/\n    // @returns raw rlp encoding in bytes\n    function toRlpBytes(RLPItem memory item) internal pure returns (bytes memory) {\n        bytes memory result = new bytes(item.len);\n        uint ptr;\n        assembly {\n            ptr := add(0x20, result)\n        }\n        copy(item.memPtr, ptr, item.len);\n        return result;\n    }\n\n    function toBoolean(RLPItem memory item) internal pure returns (bool) {\n        require(item.len == 1, \"Invalid RLPItem. Booleans are encoded in 1 byte\");\n        uint result;\n        uint memPtr = item.memPtr;\n        assembly {\n            result := byte(0, mload(memPtr))\n        }\n        return result == 0 ? false : true;\n    }\n\n    function toAddress(RLPItem memory item) internal pure returns (address) {\n        // 1 byte for the length prefix according to RLP spec\n        require(item.len <= 21, \"Invalid RLPItem. Addresses are encoded in 20 bytes or less\");\n        return address(toUint(item));\n    }\n\n    function toUint(RLPItem memory item) internal pure returns (uint) {\n        uint offset = _payloadOffset(item.memPtr);\n        uint len = item.len - offset;\n        uint memPtr = item.memPtr + offset;\n        uint result;\n        assembly {\n            result := div(mload(memPtr), exp(256, sub(32, len))) // shift to the correct location\n        }\n        return result;\n    }\n\n    function toBytes(RLPItem memory item) internal pure returns (bytes memory) {\n        uint offset = _payloadOffset(item.memPtr);\n        uint len = item.len - offset;\n        // data length\n        bytes memory result = new bytes(len);\n        uint destPtr;\n        assembly {\n            destPtr := add(0x20, result)\n        }\n        copy(item.memPtr + offset, destPtr, len);\n        return result;\n    }\n    /*\n    * @param src Pointer to source\n    * @param dest Pointer to destination\n    * @param len Amount of memory to copy from the source\n    */\n    function copy(uint src, uint dest, uint len) internal pure {\n        // copy as many word sizes as possible\n        for (; len >= WORD_SIZE; len -= WORD_SIZE) {\n            assembly {\n                mstore(dest, mload(src))\n            }\n            src += WORD_SIZE;\n            dest += WORD_SIZE;\n        }\n        // left over bytes. Mask is used to remove unwanted bytes from the word\n        uint mask = 256 ** (WORD_SIZE - len) - 1;\n        assembly {\n            let srcpart := and(mload(src), not(mask)) // zero out src\n            let destpart := and(mload(dest), mask) // retrieve the bytes\n            mstore(dest, or(destpart, srcpart))\n        }\n    }\n}\n",
  "sourcePath": "tabookey-gasless/contracts/RLPReader.sol",
  "compiler": {
    "name": "solc",
    "version": "0.5.0+commit.1d4f565a.Emscripten.clang"
  },
  "schemaVersion": "3.0.2",
  "updatedAt": "2019-04-25T17:28:36.268Z",
  "devdoc": {
    "methods": {}
  },
  "userdoc": {
    "methods": {}
  }
}